{
  "_format": "hh3-artifact-1",
  "contractName": "GameMap",
  "sourceName": "contracts/GameMap.sol",
  "abi": [
    {
      "anonymous": false,
      "inputs": [
        {
          "indexed": false,
          "internalType": "uint256",
          "name": "x",
          "type": "uint256"
        },
        {
          "indexed": false,
          "internalType": "uint256",
          "name": "y",
          "type": "uint256"
        },
        {
          "indexed": false,
          "internalType": "address",
          "name": "newOwner",
          "type": "address"
        }
      ],
      "name": "TileClaimed",
      "type": "event"
    },
    {
      "inputs": [
        {
          "internalType": "uint256",
          "name": "x",
          "type": "uint256"
        },
        {
          "internalType": "uint256",
          "name": "y",
          "type": "uint256"
        }
      ],
      "name": "claimTile",
      "outputs": [],
      "stateMutability": "nonpayable",
      "type": "function"
    },
    {
      "inputs": [
        {
          "internalType": "uint256",
          "name": "",
          "type": "uint256"
        },
        {
          "internalType": "uint256",
          "name": "",
          "type": "uint256"
        }
      ],
      "name": "tiles",
      "outputs": [
        {
          "internalType": "address",
          "name": "owner",
          "type": "address"
        },
        {
          "internalType": "uint8",
          "name": "tileType",
          "type": "uint8"
        }
      ],
      "stateMutability": "view",
      "type": "function"
    }
  ],
  "bytecode": "0x6080604052348015600e575f5ffd5b506101d78061001c5f395ff3fe608060405234801561000f575f5ffd5b5060043610610034575f3560e01c80635019d3ea146100385780638a3d7cdc1461004d575b5f5ffd5b61004b610046366004610181565b6100ae565b005b61008961005b366004610181565b5f6020818152928152604080822090935290815220546001600160a01b03811690600160a01b900460ff1682565b604080516001600160a01b03909316835260ff90911660208301520160405180910390f35b5f828152602081815260408083208484529091529020546001600160a01b0316156101175760405162461bcd60e51b8152602060048201526015602482015274151a5b19481a5cc8185b1c9958591e481bdddb9959605a1b604482015260640160405180910390fd5b5f828152602081815260408083208484528252918290208054336001600160a01b0319909116811790915582518581529182018490528183015290517f67126f5f1d63521282c9181a7e603e66131149b94a100e31046b45a1fb74b5a29181900360600190a15050565b5f5f60408385031215610192575f5ffd5b5050803592602090910135915056fea26469706673582212209a5e93d424f101fdbeec93f5e2a0fec9c7f12938d38bad64f47b84325ec34d8464736f6c634300081c0033",
  "linkReferences": {},
  "deployedLinkReferences": {},
  "immutableReferences": {},
  "inputSourceName": "project/contracts/GameMap.sol",
  "buildInfoId": "solc-0_8_28-e6f69d3857e9da8bd2003f0b05bd55e05eb19b7b"
}