{
  "_format": "hh-sol-artifact-1",
  "contractName": "GameMap",
  "sourceName": "contracts/GameMap.sol",
  "abi": [
    {
      "inputs": [],
      "stateMutability": "nonpayable",
      "type": "constructor"
    },
    {
      "inputs": [
        {
          "internalType": "address",
          "name": "sender",
          "type": "address"
        },
        {
          "internalType": "uint256",
          "name": "tokenId",
          "type": "uint256"
        },
        {
          "internalType": "address",
          "name": "owner",
          "type": "address"
        }
      ],
      "name": "ERC721IncorrectOwner",
      "type": "error"
    },
    {
      "inputs": [
        {
          "internalType": "address",
          "name": "operator",
          "type": "address"
        },
        {
          "internalType": "uint256",
          "name": "tokenId",
          "type": "uint256"
        }
      ],
      "name": "ERC721InsufficientApproval",
      "type": "error"
    },
    {
      "inputs": [
        {
          "internalType": "address",
          "name": "approver",
          "type": "address"
        }
      ],
      "name": "ERC721InvalidApprover",
      "type": "error"
    },
    {
      "inputs": [
        {
          "internalType": "address",
          "name": "operator",
          "type": "address"
        }
      ],
      "name": "ERC721InvalidOperator",
      "type": "error"
    },
    {
      "inputs": [
        {
          "internalType": "address",
          "name": "owner",
          "type": "address"
        }
      ],
      "name": "ERC721InvalidOwner",
      "type": "error"
    },
    {
      "inputs": [
        {
          "internalType": "address",
          "name": "receiver",
          "type": "address"
        }
      ],
      "name": "ERC721InvalidReceiver",
      "type": "error"
    },
    {
      "inputs": [
        {
          "internalType": "address",
          "name": "sender",
          "type": "address"
        }
      ],
      "name": "ERC721InvalidSender",
      "type": "error"
    },
    {
      "inputs": [
        {
          "internalType": "uint256",
          "name": "tokenId",
          "type": "uint256"
        }
      ],
      "name": "ERC721NonexistentToken",
      "type": "error"
    },
    {
      "anonymous": false,
      "inputs": [
        {
          "indexed": true,
          "internalType": "address",
          "name": "owner",
          "type": "address"
        },
        {
          "indexed": true,
          "internalType": "address",
          "name": "approved",
          "type": "address"
        },
        {
          "indexed": true,
          "internalType": "uint256",
          "name": "tokenId",
          "type": "uint256"
        }
      ],
      "name": "Approval",
      "type": "event"
    },
    {
      "anonymous": false,
      "inputs": [
        {
          "indexed": true,
          "internalType": "address",
          "name": "owner",
          "type": "address"
        },
        {
          "indexed": true,
          "internalType": "address",
          "name": "operator",
          "type": "address"
        },
        {
          "indexed": false,
          "internalType": "bool",
          "name": "approved",
          "type": "bool"
        }
      ],
      "name": "ApprovalForAll",
      "type": "event"
    },
    {
      "anonymous": false,
      "inputs": [
        {
          "indexed": false,
          "internalType": "uint256",
          "name": "_fromTokenId",
          "type": "uint256"
        },
        {
          "indexed": false,
          "internalType": "uint256",
          "name": "_toTokenId",
          "type": "uint256"
        }
      ],
      "name": "BatchMetadataUpdate",
      "type": "event"
    },
    {
      "anonymous": false,
      "inputs": [
        {
          "indexed": true,
          "internalType": "address",
          "name": "owner",
          "type": "address"
        },
        {
          "indexed": false,
          "internalType": "uint256",
          "name": "tokenId",
          "type": "uint256"
        },
        {
          "indexed": false,
          "internalType": "int256",
          "name": "x",
          "type": "int256"
        },
        {
          "indexed": false,
          "internalType": "int256",
          "name": "y",
          "type": "int256"
        }
      ],
      "name": "KingdomMinted",
      "type": "event"
    },
    {
      "anonymous": false,
      "inputs": [
        {
          "indexed": false,
          "internalType": "uint256",
          "name": "_tokenId",
          "type": "uint256"
        }
      ],
      "name": "MetadataUpdate",
      "type": "event"
    },
    {
      "anonymous": false,
      "inputs": [
        {
          "indexed": true,
          "internalType": "address",
          "name": "from",
          "type": "address"
        },
        {
          "indexed": true,
          "internalType": "address",
          "name": "to",
          "type": "address"
        },
        {
          "indexed": true,
          "internalType": "uint256",
          "name": "tokenId",
          "type": "uint256"
        }
      ],
      "name": "Transfer",
      "type": "event"
    },
    {
      "inputs": [
        {
          "internalType": "address",
          "name": "to",
          "type": "address"
        },
        {
          "internalType": "uint256",
          "name": "tokenId",
          "type": "uint256"
        }
      ],
      "name": "approve",
      "outputs": [],
      "stateMutability": "nonpayable",
      "type": "function"
    },
    {
      "inputs": [
        {
          "internalType": "address",
          "name": "owner",
          "type": "address"
        }
      ],
      "name": "balanceOf",
      "outputs": [
        {
          "internalType": "uint256",
          "name": "",
          "type": "uint256"
        }
      ],
      "stateMutability": "view",
      "type": "function"
    },
    {
      "inputs": [
        {
          "internalType": "uint256",
          "name": "tokenId",
          "type": "uint256"
        }
      ],
      "name": "getApproved",
      "outputs": [
        {
          "internalType": "address",
          "name": "",
          "type": "address"
        }
      ],
      "stateMutability": "view",
      "type": "function"
    },
    {
      "inputs": [
        {
          "internalType": "address",
          "name": "",
          "type": "address"
        }
      ],
      "name": "hasKingdom",
      "outputs": [
        {
          "internalType": "bool",
          "name": "",
          "type": "bool"
        }
      ],
      "stateMutability": "view",
      "type": "function"
    },
    {
      "inputs": [
        {
          "internalType": "address",
          "name": "owner",
          "type": "address"
        },
        {
          "internalType": "address",
          "name": "operator",
          "type": "address"
        }
      ],
      "name": "isApprovedForAll",
      "outputs": [
        {
          "internalType": "bool",
          "name": "",
          "type": "bool"
        }
      ],
      "stateMutability": "view",
      "type": "function"
    },
    {
      "inputs": [
        {
          "internalType": "uint256",
          "name": "",
          "type": "uint256"
        }
      ],
      "name": "kingdoms",
      "outputs": [
        {
          "internalType": "string",
          "name": "username",
          "type": "string"
        },
        {
          "internalType": "int256",
          "name": "x",
          "type": "int256"
        },
        {
          "internalType": "int256",
          "name": "y",
          "type": "int256"
        },
        {
          "internalType": "uint256",
          "name": "power",
          "type": "uint256"
        }
      ],
      "stateMutability": "view",
      "type": "function"
    },
    {
      "inputs": [
        {
          "internalType": "string",
          "name": "_username",
          "type": "string"
        },
        {
          "internalType": "int256",
          "name": "_x",
          "type": "int256"
        },
        {
          "internalType": "int256",
          "name": "_y",
          "type": "int256"
        },
        {
          "internalType": "string",
          "name": "_tokenURI",
          "type": "string"
        }
      ],
      "name": "mintKingdom",
      "outputs": [
        {
          "internalType": "uint256",
          "name": "",
          "type": "uint256"
        }
      ],
      "stateMutability": "nonpayable",
      "type": "function"
    },
    {
      "inputs": [],
      "name": "name",
      "outputs": [
        {
          "internalType": "string",
          "name": "",
          "type": "string"
        }
      ],
      "stateMutability": "view",
      "type": "function"
    },
    {
      "inputs": [
        {
          "internalType": "uint256",
          "name": "tokenId",
          "type": "uint256"
        }
      ],
      "name": "ownerOf",
      "outputs": [
        {
          "internalType": "address",
          "name": "",
          "type": "address"
        }
      ],
      "stateMutability": "view",
      "type": "function"
    },
    {
      "inputs": [
        {
          "internalType": "address",
          "name": "from",
          "type": "address"
        },
        {
          "internalType": "address",
          "name": "to",
          "type": "address"
        },
        {
          "internalType": "uint256",
          "name": "tokenId",
          "type": "uint256"
        }
      ],
      "name": "safeTransferFrom",
      "outputs": [],
      "stateMutability": "nonpayable",
      "type": "function"
    },
    {
      "inputs": [
        {
          "internalType": "address",
          "name": "from",
          "type": "address"
        },
        {
          "internalType": "address",
          "name": "to",
          "type": "address"
        },
        {
          "internalType": "uint256",
          "name": "tokenId",
          "type": "uint256"
        },
        {
          "internalType": "bytes",
          "name": "data",
          "type": "bytes"
        }
      ],
      "name": "safeTransferFrom",
      "outputs": [],
      "stateMutability": "nonpayable",
      "type": "function"
    },
    {
      "inputs": [
        {
          "internalType": "address",
          "name": "operator",
          "type": "address"
        },
        {
          "internalType": "bool",
          "name": "approved",
          "type": "bool"
        }
      ],
      "name": "setApprovalForAll",
      "outputs": [],
      "stateMutability": "nonpayable",
      "type": "function"
    },
    {
      "inputs": [
        {
          "internalType": "bytes4",
          "name": "interfaceId",
          "type": "bytes4"
        }
      ],
      "name": "supportsInterface",
      "outputs": [
        {
          "internalType": "bool",
          "name": "",
          "type": "bool"
        }
      ],
      "stateMutability": "view",
      "type": "function"
    },
    {
      "inputs": [],
      "name": "symbol",
      "outputs": [
        {
          "internalType": "string",
          "name": "",
          "type": "string"
        }
      ],
      "stateMutability": "view",
      "type": "function"
    },
    {
      "inputs": [
        {
          "internalType": "uint256",
          "name": "tokenId",
          "type": "uint256"
        }
      ],
      "name": "tokenURI",
      "outputs": [
        {
          "internalType": "string",
          "name": "",
          "type": "string"
        }
      ],
      "stateMutability": "view",
      "type": "function"
    },
    {
      "inputs": [
        {
          "internalType": "address",
          "name": "from",
          "type": "address"
        },
        {
          "internalType": "address",
          "name": "to",
          "type": "address"
        },
        {
          "internalType": "uint256",
          "name": "tokenId",
          "type": "uint256"
        }
      ],
      "name": "transferFrom",
      "outputs": [],
      "stateMutability": "nonpayable",
      "type": "function"
    },
    {
      "inputs": [
        {
          "internalType": "uint256",
          "name": "_tokenId",
          "type": "uint256"
        },
        {
          "internalType": "uint256",
          "name": "_newPower",
          "type": "uint256"
        }
      ],
      "name": "updatePower",
      "outputs": [],
      "stateMutability": "nonpayable",
      "type": "function"
    }
  ],
  "bytecode": "0x608060405234801561001057600080fd5b506040518060400160405280600e81526020016d43727970746f4b696e67646f6d7360901b81525060405180604001604052806007815260200166434b5245414c4d60c81b8152508160009081610067919061011b565b506001610074828261011b565b5050506101d9565b634e487b7160e01b600052604160045260246000fd5b600181811c908216806100a657607f821691505b6020821081036100c657634e487b7160e01b600052602260045260246000fd5b50919050565b601f82111561011657806000526020600020601f840160051c810160208510156100f35750805b601f840160051c820191505b8181101561011357600081556001016100ff565b50505b505050565b81516001600160401b038111156101345761013461007c565b610148816101428454610092565b846100cc565b6020601f82116001811461017c57600083156101645750848201515b600019600385901b1c1916600184901b178455610113565b600084815260208120601f198516915b828110156101ac578785015182556020948501946001909201910161018c565b50848210156101ca5786840151600019600387901b60f8161c191681555b50505050600190811b01905550565b6115b2806101e86000396000f3fe608060405234801561001057600080fd5b506004361061010b5760003560e01c806370a08231116100a2578063b88d4fde11610071578063b88d4fde14610238578063c0211c791461024b578063c87b56dd1461026e578063e338ef5414610281578063e985e9c5146102a457600080fd5b806370a08231146101e75780639133210a146101fa57806395d89b411461021d578063a22cb4651461022557600080fd5b8063220beab8116100de578063220beab81461018d57806323b872dd146101ae57806342842e0e146101c15780636352211e146101d457600080fd5b806301ffc9a71461011057806306fdde0314610138578063081812fc1461014d578063095ea7b314610178575b600080fd5b61012361011e366004610ff9565b6102b7565b60405190151581526020015b60405180910390f35b6101406102e2565b60405161012f9190611066565b61016061015b366004611079565b610374565b6040516001600160a01b03909116815260200161012f565b61018b6101863660046110ae565b61039d565b005b6101a061019b366004611188565b6103ac565b60405190815260200161012f565b61018b6101bc366004611204565b610506565b61018b6101cf366004611204565b610591565b6101606101e2366004611079565b6105b1565b6101a06101f5366004611241565b6105bc565b61020d610208366004611079565b610604565b60405161012f949392919061125c565b6101406106b4565b61018b61023336600461128b565b6106c3565b61018b6102463660046112c7565b6106ce565b610123610259366004611241565b60096020526000908152604090205460ff1681565b61014061027c366004611079565b6106e6565b61018b61028f366004611337565b60009182526008602052604090912060030155565b6101236102b2366004611359565b6107f7565b60006001600160e01b03198216632483248360e11b14806102dc57506102dc82610825565b92915050565b6060600080546102f19061138c565b80601f016020809104026020016040519081016040528092919081815260200182805461031d9061138c565b801561036a5780601f1061033f5761010080835404028352916020019161036a565b820191906000526020600020905b81548152906001019060200180831161034d57829003601f168201915b5050505050905090565b600061037f82610875565b506000828152600460205260409020546001600160a01b03166102dc565b6103a88282336108ae565b5050565b3360009081526009602052604081205460ff16156104115760405162461bcd60e51b815260206004820152601860248201527f4f6e652077616c6c65742c206f6e65206b696e67646f6d21000000000000000060448201526064015b60405180910390fd5b60078054906000610421836113c6565b909155505060075461043333826108bb565b61043d8184610920565b6040805160808101825287815260208082018890528183018790526103e8606083015260008481526008909152919091208151819061047c9082611434565b50602082810151600183810191909155604080850151600285015560609485015160039094019390935533600081815260098452849020805460ff1916909217909155825185815291820189905291810187905290917fe19dfd219ae08270fc96cfd24bdfba39b769fbbd91add99c1666c9c5e8e6ba88910160405180910390a295945050505050565b6001600160a01b03821661053057604051633250574960e11b815260006004820152602401610408565b600061053d838333610970565b9050836001600160a01b0316816001600160a01b03161461058b576040516364283d7b60e01b81526001600160a01b0380861660048301526024820184905282166044820152606401610408565b50505050565b6105ac838383604051806020016040528060008152506106ce565b505050565b60006102dc82610875565b60006001600160a01b0382166105e8576040516322718ad960e21b815260006004820152602401610408565b506001600160a01b031660009081526003602052604090205490565b60086020526000908152604090208054819061061f9061138c565b80601f016020809104026020016040519081016040528092919081815260200182805461064b9061138c565b80156106985780601f1061066d57610100808354040283529160200191610698565b820191906000526020600020905b81548152906001019060200180831161067b57829003601f168201915b5050505050908060010154908060020154908060030154905084565b6060600180546102f19061138c565b6103a8338383610a69565b6106d9848484610506565b61058b3385858585610b08565b60606106f182610875565b506000828152600660205260408120805461070b9061138c565b80601f01602080910402602001604051908101604052809291908181526020018280546107379061138c565b80156107845780601f1061075957610100808354040283529160200191610784565b820191906000526020600020905b81548152906001019060200180831161076757829003601f168201915b5050505050905060006107a260408051602081019091526000815290565b905080516000036107b4575092915050565b8151156107e65780826040516020016107ce9291906114f3565b60405160208183030381529060405292505050919050565b6107ef84610c33565b949350505050565b6001600160a01b03918216600090815260056020908152604080832093909416825291909152205460ff1690565b60006001600160e01b031982166380ac58cd60e01b148061085657506001600160e01b03198216635b5e139f60e01b145b806102dc57506301ffc9a760e01b6001600160e01b03198316146102dc565b6000818152600260205260408120546001600160a01b0316806102dc57604051637e27328960e01b815260048101849052602401610408565b6105ac8383836001610ca8565b6001600160a01b0382166108e557604051633250574960e11b815260006004820152602401610408565b60006108f383836000610970565b90506001600160a01b038116156105ac576040516339e3563760e11b815260006004820152602401610408565b60008281526006602052604090206109388282611434565b506040518281527ff8e1a15aba9398e019f0b49df1a4fde98ee17ae345cb5f6b5e2c27f5033e8ce79060200160405180910390a15050565b6000828152600260205260408120546001600160a01b039081169083161561099d5761099d818486610dae565b6001600160a01b038116156109db576109ba600085600080610ca8565b6001600160a01b038116600090815260036020526040902080546000190190555b6001600160a01b03851615610a0a576001600160a01b0385166000908152600360205260409020805460010190555b60008481526002602052604080822080546001600160a01b0319166001600160a01b0389811691821790925591518793918516917fddf252ad1be2c89b69c2b068fc378daa952ba7f163c4a11628f55a4df523b3ef91a4949350505050565b6001600160a01b038216610a9b57604051630b61174360e31b81526001600160a01b0383166004820152602401610408565b6001600160a01b03838116600081815260056020908152604080832094871680845294825291829020805460ff191686151590811790915591519182527f17307eab39ab6107e8899845ad3d59bd9653f200f220920489ca2b5937696c31910160405180910390a3505050565b6001600160a01b0383163b15610c2c57604051630a85bd0160e11b81526001600160a01b0384169063150b7a0290610b4a908890889087908790600401611522565b6020604051808303816000875af1925050508015610b85575060408051601f3d908101601f19168201909252610b829181019061155f565b60015b610bee573d808015610bb3576040519150601f19603f3d011682016040523d82523d6000602084013e610bb8565b606091505b508051600003610be657604051633250574960e11b81526001600160a01b0385166004820152602401610408565b805160208201fd5b6001600160e01b03198116630a85bd0160e11b14610c2a57604051633250574960e11b81526001600160a01b0385166004820152602401610408565b505b5050505050565b6060610c3e82610875565b506000610c5660408051602081019091526000815290565b90506000815111610c765760405180602001604052806000815250610ca1565b80610c8084610e12565b604051602001610c919291906114f3565b6040516020818303038152906040525b9392505050565b8080610cbc57506001600160a01b03821615155b15610d7e576000610ccc84610875565b90506001600160a01b03831615801590610cf85750826001600160a01b0316816001600160a01b031614155b8015610d0b5750610d0981846107f7565b155b15610d345760405163a9fbf51f60e01b81526001600160a01b0384166004820152602401610408565b8115610d7c5783856001600160a01b0316826001600160a01b03167f8c5be1e5ebec7d5bd14f71427d1e84f3dd0314c0f7b2291e5b200ac8c7c3b92560405160405180910390a45b505b5050600090815260046020526040902080546001600160a01b0319166001600160a01b0392909216919091179055565b610db9838383610ea5565b6105ac576001600160a01b038316610de757604051637e27328960e01b815260048101829052602401610408565b60405163177e802f60e01b81526001600160a01b038316600482015260248101829052604401610408565b60606000610e1f83610f08565b600101905060008167ffffffffffffffff811115610e3f57610e3f6110d8565b6040519080825280601f01601f191660200182016040528015610e69576020820181803683370190505b5090508181016020015b600019016f181899199a1a9b1b9c1cb0b131b232b360811b600a86061a8153600a8504945084610e7357509392505050565b60006001600160a01b038316158015906107ef5750826001600160a01b0316846001600160a01b03161480610edf5750610edf84846107f7565b806107ef5750506000908152600460205260409020546001600160a01b03908116911614919050565b60008072184f03e93ff9f4daa797ed6e38ed64bf6a1f0160401b8310610f475772184f03e93ff9f4daa797ed6e38ed64bf6a1f0160401b830492506040015b6d04ee2d6d415b85acef81000000008310610f73576d04ee2d6d415b85acef8100000000830492506020015b662386f26fc100008310610f9157662386f26fc10000830492506010015b6305f5e1008310610fa9576305f5e100830492506008015b6127108310610fbd57612710830492506004015b60648310610fcf576064830492506002015b600a83106102dc5760010192915050565b6001600160e01b031981168114610ff657600080fd5b50565b60006020828403121561100b57600080fd5b8135610ca181610fe0565b60005b83811015611031578181015183820152602001611019565b50506000910152565b60008151808452611052816020860160208601611016565b601f01601f19169290920160200192915050565b602081526000610ca1602083018461103a565b60006020828403121561108b57600080fd5b5035919050565b80356001600160a01b03811681146110a957600080fd5b919050565b600080604083850312156110c157600080fd5b6110ca83611092565b946020939093013593505050565b634e487b7160e01b600052604160045260246000fd5b60008067ffffffffffffffff841115611109576111096110d8565b50604051601f19601f85018116603f0116810181811067ffffffffffffffff82111715611138576111386110d8565b60405283815290508082840185101561115057600080fd5b83836020830137600060208583010152509392505050565b600082601f83011261117957600080fd5b610ca1838335602085016110ee565b6000806000806080858703121561119e57600080fd5b843567ffffffffffffffff8111156111b557600080fd5b6111c187828801611168565b9450506020850135925060408501359150606085013567ffffffffffffffff8111156111ec57600080fd5b6111f887828801611168565b91505092959194509250565b60008060006060848603121561121957600080fd5b61122284611092565b925061123060208501611092565b929592945050506040919091013590565b60006020828403121561125357600080fd5b610ca182611092565b60808152600061126f608083018761103a565b6020830195909552506040810192909252606090910152919050565b6000806040838503121561129e57600080fd5b6112a783611092565b9150602083013580151581146112bc57600080fd5b809150509250929050565b600080600080608085870312156112dd57600080fd5b6112e685611092565b93506112f460208601611092565b925060408501359150606085013567ffffffffffffffff81111561131757600080fd5b8501601f8101871361132857600080fd5b6111f8878235602084016110ee565b6000806040838503121561134a57600080fd5b50508035926020909101359150565b6000806040838503121561136c57600080fd5b61137583611092565b915061138360208401611092565b90509250929050565b600181811c908216806113a057607f821691505b6020821081036113c057634e487b7160e01b600052602260045260246000fd5b50919050565b6000600182016113e657634e487b7160e01b600052601160045260246000fd5b5060010190565b601f8211156105ac57806000526020600020601f840160051c810160208510156114145750805b601f840160051c820191505b81811015610c2c5760008155600101611420565b815167ffffffffffffffff81111561144e5761144e6110d8565b6114628161145c845461138c565b846113ed565b6020601f821160018114611496576000831561147e5750848201515b600019600385901b1c1916600184901b178455610c2c565b600084815260208120601f198516915b828110156114c657878501518255602094850194600190920191016114a6565b50848210156114e45786840151600019600387901b60f8161c191681555b50505050600190811b01905550565b60008351611505818460208801611016565b835190830190611519818360208801611016565b01949350505050565b6001600160a01b03858116825284166020820152604081018390526080606082018190526000906115559083018461103a565b9695505050505050565b60006020828403121561157157600080fd5b8151610ca181610fe056fea2646970667358221220cf65532fd75e9473cbf36a48b860fd2cbbc9922b8ff954e34ef787ffb2b012e864736f6c634300081c0033",
  "linkReferences": {},
  "deployedLinkReferences": {}
}