{
  "_format": "hh-sol-artifact-1",
  "contractName": "GameMap",
  "sourceName": "contracts/GameMap.sol",
  "abi": [
    {
      "inputs": [
        {
          "internalType": "string",
          "name": "initialBaseURI",
          "type": "string"
        }
      ],
      "stateMutability": "nonpayable",
      "type": "constructor"
    },
    {
      "inputs": [
        {
          "internalType": "address",
          "name": "sender",
          "type": "address"
        },
        {
          "internalType": "uint256",
          "name": "tokenId",
          "type": "uint256"
        },
        {
          "internalType": "address",
          "name": "owner",
          "type": "address"
        }
      ],
      "name": "ERC721IncorrectOwner",
      "type": "error"
    },
    {
      "inputs": [
        {
          "internalType": "address",
          "name": "operator",
          "type": "address"
        },
        {
          "internalType": "uint256",
          "name": "tokenId",
          "type": "uint256"
        }
      ],
      "name": "ERC721InsufficientApproval",
      "type": "error"
    },
    {
      "inputs": [
        {
          "internalType": "address",
          "name": "approver",
          "type": "address"
        }
      ],
      "name": "ERC721InvalidApprover",
      "type": "error"
    },
    {
      "inputs": [
        {
          "internalType": "address",
          "name": "operator",
          "type": "address"
        }
      ],
      "name": "ERC721InvalidOperator",
      "type": "error"
    },
    {
      "inputs": [
        {
          "internalType": "address",
          "name": "owner",
          "type": "address"
        }
      ],
      "name": "ERC721InvalidOwner",
      "type": "error"
    },
    {
      "inputs": [
        {
          "internalType": "address",
          "name": "receiver",
          "type": "address"
        }
      ],
      "name": "ERC721InvalidReceiver",
      "type": "error"
    },
    {
      "inputs": [
        {
          "internalType": "address",
          "name": "sender",
          "type": "address"
        }
      ],
      "name": "ERC721InvalidSender",
      "type": "error"
    },
    {
      "inputs": [
        {
          "internalType": "uint256",
          "name": "tokenId",
          "type": "uint256"
        }
      ],
      "name": "ERC721NonexistentToken",
      "type": "error"
    },
    {
      "inputs": [
        {
          "internalType": "address",
          "name": "owner",
          "type": "address"
        }
      ],
      "name": "OwnableInvalidOwner",
      "type": "error"
    },
    {
      "inputs": [
        {
          "internalType": "address",
          "name": "account",
          "type": "address"
        }
      ],
      "name": "OwnableUnauthorizedAccount",
      "type": "error"
    },
    {
      "anonymous": false,
      "inputs": [
        {
          "indexed": true,
          "internalType": "address",
          "name": "owner",
          "type": "address"
        },
        {
          "indexed": true,
          "internalType": "address",
          "name": "approved",
          "type": "address"
        },
        {
          "indexed": true,
          "internalType": "uint256",
          "name": "tokenId",
          "type": "uint256"
        }
      ],
      "name": "Approval",
      "type": "event"
    },
    {
      "anonymous": false,
      "inputs": [
        {
          "indexed": true,
          "internalType": "address",
          "name": "owner",
          "type": "address"
        },
        {
          "indexed": true,
          "internalType": "address",
          "name": "operator",
          "type": "address"
        },
        {
          "indexed": false,
          "internalType": "bool",
          "name": "approved",
          "type": "bool"
        }
      ],
      "name": "ApprovalForAll",
      "type": "event"
    },
    {
      "anonymous": false,
      "inputs": [
        {
          "indexed": false,
          "internalType": "string",
          "name": "newURI",
          "type": "string"
        }
      ],
      "name": "BaseURIUpdated",
      "type": "event"
    },
    {
      "anonymous": false,
      "inputs": [
        {
          "indexed": true,
          "internalType": "address",
          "name": "owner",
          "type": "address"
        },
        {
          "indexed": false,
          "internalType": "uint256",
          "name": "tokenId",
          "type": "uint256"
        },
        {
          "indexed": false,
          "internalType": "uint256",
          "name": "worldId",
          "type": "uint256"
        },
        {
          "indexed": false,
          "internalType": "string",
          "name": "username",
          "type": "string"
        }
      ],
      "name": "KingdomMinted",
      "type": "event"
    },
    {
      "anonymous": false,
      "inputs": [
        {
          "indexed": true,
          "internalType": "address",
          "name": "previousOwner",
          "type": "address"
        },
        {
          "indexed": true,
          "internalType": "address",
          "name": "newOwner",
          "type": "address"
        }
      ],
      "name": "OwnershipTransferred",
      "type": "event"
    },
    {
      "anonymous": false,
      "inputs": [
        {
          "indexed": false,
          "internalType": "uint256",
          "name": "tokenId",
          "type": "uint256"
        },
        {
          "indexed": false,
          "internalType": "string",
          "name": "newTitle",
          "type": "string"
        },
        {
          "indexed": false,
          "internalType": "uint256",
          "name": "newTier",
          "type": "uint256"
        }
      ],
      "name": "TitleUpdated",
      "type": "event"
    },
    {
      "anonymous": false,
      "inputs": [
        {
          "indexed": true,
          "internalType": "address",
          "name": "from",
          "type": "address"
        },
        {
          "indexed": true,
          "internalType": "address",
          "name": "to",
          "type": "address"
        },
        {
          "indexed": true,
          "internalType": "uint256",
          "name": "tokenId",
          "type": "uint256"
        }
      ],
      "name": "Transfer",
      "type": "event"
    },
    {
      "inputs": [
        {
          "internalType": "address",
          "name": "to",
          "type": "address"
        },
        {
          "internalType": "uint256",
          "name": "tokenId",
          "type": "uint256"
        }
      ],
      "name": "approve",
      "outputs": [],
      "stateMutability": "nonpayable",
      "type": "function"
    },
    {
      "inputs": [
        {
          "internalType": "address",
          "name": "owner",
          "type": "address"
        }
      ],
      "name": "balanceOf",
      "outputs": [
        {
          "internalType": "uint256",
          "name": "",
          "type": "uint256"
        }
      ],
      "stateMutability": "view",
      "type": "function"
    },
    {
      "inputs": [
        {
          "internalType": "uint256",
          "name": "tokenId",
          "type": "uint256"
        }
      ],
      "name": "getApproved",
      "outputs": [
        {
          "internalType": "address",
          "name": "",
          "type": "address"
        }
      ],
      "stateMutability": "view",
      "type": "function"
    },
    {
      "inputs": [
        {
          "internalType": "uint256",
          "name": "tokenId",
          "type": "uint256"
        }
      ],
      "name": "getKingdomData",
      "outputs": [
        {
          "components": [
            {
              "internalType": "string",
              "name": "username",
              "type": "string"
            },
            {
              "internalType": "int256",
              "name": "x",
              "type": "int256"
            },
            {
              "internalType": "int256",
              "name": "y",
              "type": "int256"
            },
            {
              "internalType": "uint256",
              "name": "worldId",
              "type": "uint256"
            },
            {
              "internalType": "string",
              "name": "seasonName",
              "type": "string"
            },
            {
              "internalType": "uint256",
              "name": "rankTier",
              "type": "uint256"
            },
            {
              "internalType": "string",
              "name": "title",
              "type": "string"
            },
            {
              "internalType": "uint256",
              "name": "power",
              "type": "uint256"
            }
          ],
          "internalType": "struct GameMap.KingdomData",
          "name": "",
          "type": "tuple"
        }
      ],
      "stateMutability": "view",
      "type": "function"
    },
    {
      "inputs": [
        {
          "internalType": "address",
          "name": "owner",
          "type": "address"
        },
        {
          "internalType": "address",
          "name": "operator",
          "type": "address"
        }
      ],
      "name": "isApprovedForAll",
      "outputs": [
        {
          "internalType": "bool",
          "name": "",
          "type": "bool"
        }
      ],
      "stateMutability": "view",
      "type": "function"
    },
    {
      "inputs": [
        {
          "internalType": "uint256",
          "name": "",
          "type": "uint256"
        }
      ],
      "name": "kingdomDetails",
      "outputs": [
        {
          "internalType": "string",
          "name": "username",
          "type": "string"
        },
        {
          "internalType": "int256",
          "name": "x",
          "type": "int256"
        },
        {
          "internalType": "int256",
          "name": "y",
          "type": "int256"
        },
        {
          "internalType": "uint256",
          "name": "worldId",
          "type": "uint256"
        },
        {
          "internalType": "string",
          "name": "seasonName",
          "type": "string"
        },
        {
          "internalType": "uint256",
          "name": "rankTier",
          "type": "uint256"
        },
        {
          "internalType": "string",
          "name": "title",
          "type": "string"
        },
        {
          "internalType": "uint256",
          "name": "power",
          "type": "uint256"
        }
      ],
      "stateMutability": "view",
      "type": "function"
    },
    {
      "inputs": [
        {
          "internalType": "string",
          "name": "_username",
          "type": "string"
        },
        {
          "internalType": "int256",
          "name": "_x",
          "type": "int256"
        },
        {
          "internalType": "int256",
          "name": "_y",
          "type": "int256"
        },
        {
          "internalType": "uint256",
          "name": "_worldId",
          "type": "uint256"
        },
        {
          "internalType": "string",
          "name": "_seasonName",
          "type": "string"
        }
      ],
      "name": "mintKingdom",
      "outputs": [
        {
          "internalType": "uint256",
          "name": "",
          "type": "uint256"
        }
      ],
      "stateMutability": "nonpayable",
      "type": "function"
    },
    {
      "inputs": [],
      "name": "name",
      "outputs": [
        {
          "internalType": "string",
          "name": "",
          "type": "string"
        }
      ],
      "stateMutability": "view",
      "type": "function"
    },
    {
      "inputs": [],
      "name": "owner",
      "outputs": [
        {
          "internalType": "address",
          "name": "",
          "type": "address"
        }
      ],
      "stateMutability": "view",
      "type": "function"
    },
    {
      "inputs": [
        {
          "internalType": "uint256",
          "name": "tokenId",
          "type": "uint256"
        }
      ],
      "name": "ownerOf",
      "outputs": [
        {
          "internalType": "address",
          "name": "",
          "type": "address"
        }
      ],
      "stateMutability": "view",
      "type": "function"
    },
    {
      "inputs": [],
      "name": "renounceOwnership",
      "outputs": [],
      "stateMutability": "nonpayable",
      "type": "function"
    },
    {
      "inputs": [
        {
          "internalType": "address",
          "name": "from",
          "type": "address"
        },
        {
          "internalType": "address",
          "name": "to",
          "type": "address"
        },
        {
          "internalType": "uint256",
          "name": "tokenId",
          "type": "uint256"
        }
      ],
      "name": "safeTransferFrom",
      "outputs": [],
      "stateMutability": "nonpayable",
      "type": "function"
    },
    {
      "inputs": [
        {
          "internalType": "address",
          "name": "from",
          "type": "address"
        },
        {
          "internalType": "address",
          "name": "to",
          "type": "address"
        },
        {
          "internalType": "uint256",
          "name": "tokenId",
          "type": "uint256"
        },
        {
          "internalType": "bytes",
          "name": "data",
          "type": "bytes"
        }
      ],
      "name": "safeTransferFrom",
      "outputs": [],
      "stateMutability": "nonpayable",
      "type": "function"
    },
    {
      "inputs": [
        {
          "internalType": "address",
          "name": "operator",
          "type": "address"
        },
        {
          "internalType": "bool",
          "name": "approved",
          "type": "bool"
        }
      ],
      "name": "setApprovalForAll",
      "outputs": [],
      "stateMutability": "nonpayable",
      "type": "function"
    },
    {
      "inputs": [
        {
          "internalType": "string",
          "name": "newBaseURI",
          "type": "string"
        }
      ],
      "name": "setBaseURI",
      "outputs": [],
      "stateMutability": "nonpayable",
      "type": "function"
    },
    {
      "inputs": [
        {
          "internalType": "bytes4",
          "name": "interfaceId",
          "type": "bytes4"
        }
      ],
      "name": "supportsInterface",
      "outputs": [
        {
          "internalType": "bool",
          "name": "",
          "type": "bool"
        }
      ],
      "stateMutability": "view",
      "type": "function"
    },
    {
      "inputs": [],
      "name": "symbol",
      "outputs": [
        {
          "internalType": "string",
          "name": "",
          "type": "string"
        }
      ],
      "stateMutability": "view",
      "type": "function"
    },
    {
      "inputs": [
        {
          "internalType": "uint256",
          "name": "tokenId",
          "type": "uint256"
        }
      ],
      "name": "tokenURI",
      "outputs": [
        {
          "internalType": "string",
          "name": "",
          "type": "string"
        }
      ],
      "stateMutability": "view",
      "type": "function"
    },
    {
      "inputs": [
        {
          "internalType": "address",
          "name": "from",
          "type": "address"
        },
        {
          "internalType": "address",
          "name": "to",
          "type": "address"
        },
        {
          "internalType": "uint256",
          "name": "tokenId",
          "type": "uint256"
        }
      ],
      "name": "transferFrom",
      "outputs": [],
      "stateMutability": "nonpayable",
      "type": "function"
    },
    {
      "inputs": [
        {
          "internalType": "address",
          "name": "newOwner",
          "type": "address"
        }
      ],
      "name": "transferOwnership",
      "outputs": [],
      "stateMutability": "nonpayable",
      "type": "function"
    },
    {
      "inputs": [
        {
          "internalType": "uint256",
          "name": "_tokenId",
          "type": "uint256"
        },
        {
          "internalType": "uint256",
          "name": "_newTier",
          "type": "uint256"
        },
        {
          "internalType": "string",
          "name": "_newTitle",
          "type": "string"
        },
        {
          "internalType": "uint256",
          "name": "_currentPower",
          "type": "uint256"
        }
      ],
      "name": "updateAchievement",
      "outputs": [],
      "stateMutability": "nonpayable",
      "type": "function"
    },
    {
      "inputs": [
        {
          "internalType": "address",
          "name": "",
          "type": "address"
        },
        {
          "internalType": "uint256",
          "name": "",
          "type": "uint256"
        }
      ],
      "name": "walletJoinedWorld",
      "outputs": [
        {
          "internalType": "bool",
          "name": "",
          "type": "bool"
        }
      ],
      "stateMutability": "view",
      "type": "function"
    }
  ],
  "bytecode": "0x608060405234801561001057600080fd5b50604051611f78380380611f7883398101604081905261002f91610149565b336040518060400160405280600e81526020016d43727970746f4b696e67646f6d7360901b81525060405180604001604052806007815260200166434b5245414c4d60c81b8152508160009081610086919061029e565b506001610093828261029e565b5050506001600160a01b0381166100c457604051631e4fbdf760e01b81526000600482015260240160405180910390fd5b6100cd816100e1565b5060086100da828261029e565b505061035c565b600680546001600160a01b038381166001600160a01b0319831681179093556040519116919082907f8be0079c531659141344cd1fd0a4f28419497f9722a3daafe3b4186f6b6457e090600090a35050565b634e487b7160e01b600052604160045260246000fd5b60006020828403121561015b57600080fd5b81516001600160401b0381111561017157600080fd5b8201601f8101841361018257600080fd5b80516001600160401b0381111561019b5761019b610133565b604051601f8201601f19908116603f011681016001600160401b03811182821017156101c9576101c9610133565b6040528181528282016020018610156101e157600080fd5b60005b82811015610200576020818501810151838301820152016101e4565b50600091810160200191909152949350505050565b600181811c9082168061022957607f821691505b60208210810361024957634e487b7160e01b600052602260045260246000fd5b50919050565b601f82111561029957806000526020600020601f840160051c810160208510156102765750805b601f840160051c820191505b818110156102965760008155600101610282565b50505b505050565b81516001600160401b038111156102b7576102b7610133565b6102cb816102c58454610215565b8461024f565b6020601f8211600181146102ff57600083156102e75750848201515b600019600385901b1c1916600184901b178455610296565b600084815260208120601f198516915b8281101561032f578785015182556020948501946001909201910161030f565b508482101561034d5786840151600019600387901b60f8161c191681555b50505050600190811b01905550565b611c0d8061036b6000396000f3fe608060405234801561001057600080fd5b50600436106101425760003560e01c8063774bf79d116100b8578063a22cb4651161007c578063a22cb465146102da578063b88d4fde146102ed578063c87b56dd14610300578063e985e9c514610313578063ebbcb7c514610326578063f2fde38b1461033957600080fd5b8063774bf79d1461026757806377bf07691461028757806381a66d821461029a5780638da5cb5b146102c157806395d89b41146102d257600080fd5b806342842e0e1161010a57806342842e0e146101d757806350d58c0a146101ea57806355f804b3146102185780636352211e1461022b57806370a082311461023e578063715018a61461025f57600080fd5b806301ffc9a71461014757806306fdde031461016f578063081812fc14610184578063095ea7b3146101af57806323b872dd146101c4575b600080fd5b61015a6101553660046114af565b61034c565b60405190151581526020015b60405180910390f35b61017761039e565b604051610166919061151c565b61019761019236600461152f565b610430565b6040516001600160a01b039091168152602001610166565b6101c26101bd366004611564565b610459565b005b6101c26101d236600461158e565b610468565b6101c26101e536600461158e565b6104f8565b61015a6101f8366004611564565b600a60209081526000928352604080842090915290825290205460ff1681565b6101c261022636600461167b565b610518565b61019761023936600461152f565b610567565b61025161024c3660046116b0565b610572565b604051908152602001610166565b6101c26105ba565b61027a61027536600461152f565b6105ce565b60405161016691906116cb565b6101c2610295366004611764565b61081e565b6102ad6102a836600461152f565b610894565b6040516101669897969594939291906117bc565b6006546001600160a01b0316610197565b610177610a6c565b6101c26102e8366004611825565b610a7b565b6101c26102fb366004611861565b610a86565b61017761030e36600461152f565b610a9e565b61015a6103213660046118dd565b610b06565b610251610334366004611910565b610b34565b6101c26103473660046116b0565b610d24565b60006001600160e01b031982166380ac58cd60e01b148061037d57506001600160e01b03198216635b5e139f60e01b145b8061039857506301ffc9a760e01b6001600160e01b03198316145b92915050565b6060600080546103ad90611996565b80601f01602080910402602001604051908101604052809291908181526020018280546103d990611996565b80156104265780601f106103fb57610100808354040283529160200191610426565b820191906000526020600020905b81548152906001019060200180831161040957829003601f168201915b5050505050905090565b600061043b82610d62565b506000828152600460205260409020546001600160a01b0316610398565b610464828233610d9b565b5050565b6001600160a01b03821661049757604051633250574960e11b8152600060048201526024015b60405180910390fd5b60006104a4838333610da8565b9050836001600160a01b0316816001600160a01b0316146104f2576040516364283d7b60e01b81526001600160a01b038086166004830152602482018490528216604482015260640161048e565b50505050565b61051383838360405180602001604052806000815250610a86565b505050565b610520610ea1565b600861052c8282611a17565b507f6741b2fc379fad678116fe3d4d4b9a1a184ab53ba36b86ad0fa66340b1ab41ad8160405161055c919061151c565b60405180910390a150565b600061039882610d62565b60006001600160a01b03821661059e576040516322718ad960e21b81526000600482015260240161048e565b506001600160a01b031660009081526003602052604090205490565b6105c2610ea1565b6105cc6000610ece565b565b61061660405180610100016040528060608152602001600081526020016000815260200160008152602001606081526020016000815260200160608152602001600081525090565b600082815260096020526040908190208151610100810190925280548290829061063f90611996565b80601f016020809104026020016040519081016040528092919081815260200182805461066b90611996565b80156106b85780601f1061068d576101008083540402835291602001916106b8565b820191906000526020600020905b81548152906001019060200180831161069b57829003601f168201915b505050505081526020016001820154815260200160028201548152602001600382015481526020016004820180546106ef90611996565b80601f016020809104026020016040519081016040528092919081815260200182805461071b90611996565b80156107685780601f1061073d57610100808354040283529160200191610768565b820191906000526020600020905b81548152906001019060200180831161074b57829003601f168201915b505050505081526020016005820154815260200160068201805461078b90611996565b80601f01602080910402602001604051908101604052809291908181526020018280546107b790611996565b80156108045780601f106107d957610100808354040283529160200191610804565b820191906000526020600020905b8154815290600101906020018083116107e757829003601f168201915b505050505081526020016007820154815250509050919050565b610826610ea1565b600084815260096020526040902060058101849055600681016108498482611a17565b50600781018290556040517f9b481b552a98a3d3c326e31f007be09b7b5b47a0a8bbd1c16a2c14b31d204a249061088590879086908890611ad6565b60405180910390a15050505050565b6009602052600090815260409020805481906108af90611996565b80601f01602080910402602001604051908101604052809291908181526020018280546108db90611996565b80156109285780601f106108fd57610100808354040283529160200191610928565b820191906000526020600020905b81548152906001019060200180831161090b57829003601f168201915b50505050509080600101549080600201549080600301549080600401805461094f90611996565b80601f016020809104026020016040519081016040528092919081815260200182805461097b90611996565b80156109c85780601f1061099d576101008083540402835291602001916109c8565b820191906000526020600020905b8154815290600101906020018083116109ab57829003601f168201915b5050505050908060050154908060060180546109e390611996565b80601f0160208091040260200160405190810160405280929190818152602001828054610a0f90611996565b8015610a5c5780601f10610a3157610100808354040283529160200191610a5c565b820191906000526020600020905b815481529060010190602001808311610a3f57829003601f168201915b5050505050908060070154905088565b6060600180546103ad90611996565b610464338383610f20565b610a91848484610468565b6104f23385858585610fbf565b6060610aa982610d62565b506000610ab46110ea565b90506000815111610ad45760405180602001604052806000815250610aff565b80610ade846110f9565b604051602001610aef929190611aff565b6040516020818303038152906040525b9392505050565b6001600160a01b03918216600090815260056020908152604080832093909416825291909152205460ff1690565b336000908152600a6020908152604080832085845290915281205460ff1615610bba5760405162461bcd60e51b815260206004820152603260248201527f596f7520616c726561647920686176652061204b696e67646f6d20696e207468604482015271697320737065636966696320576f726c642160701b606482015260840161048e565b60078054906000610bca83611b2e565b9091555050600754610bdc338261118c565b604080516101008101825288815260208082018990528183018890526060820187905260808201869052600060a0830181905283518085018552601081526f2737bb34b1b29021b7b6b6b0b73232b960811b8184015260c08401526103e860e084015284815260099091529190912081518190610c599082611a17565b5060208201516001820155604082015160028201556060820151600382015560808201516004820190610c8c9082611a17565b5060a0820151600582015560c08201516006820190610cab9082611a17565b5060e09190910151600790910155336000818152600a6020908152604080832088845290915290819020805460ff19166001179055517fe68d11544cfebc0648fb847f8c896fbcf3c217b3e9b8ad5615fd5b6e0cf3b47d90610d1290849088908c90611b55565b60405180910390a29695505050505050565b610d2c610ea1565b6001600160a01b038116610d5657604051631e4fbdf760e01b81526000600482015260240161048e565b610d5f81610ece565b50565b6000818152600260205260408120546001600160a01b03168061039857604051637e27328960e01b81526004810184905260240161048e565b61051383838360016111f1565b6000828152600260205260408120546001600160a01b0390811690831615610dd557610dd58184866112f7565b6001600160a01b03811615610e1357610df26000856000806111f1565b6001600160a01b038116600090815260036020526040902080546000190190555b6001600160a01b03851615610e42576001600160a01b0385166000908152600360205260409020805460010190555b60008481526002602052604080822080546001600160a01b0319166001600160a01b0389811691821790925591518793918516917fddf252ad1be2c89b69c2b068fc378daa952ba7f163c4a11628f55a4df523b3ef91a4949350505050565b6006546001600160a01b031633146105cc5760405163118cdaa760e01b815233600482015260240161048e565b600680546001600160a01b038381166001600160a01b0319831681179093556040519116919082907f8be0079c531659141344cd1fd0a4f28419497f9722a3daafe3b4186f6b6457e090600090a35050565b6001600160a01b038216610f5257604051630b61174360e31b81526001600160a01b038316600482015260240161048e565b6001600160a01b03838116600081815260056020908152604080832094871680845294825291829020805460ff191686151590811790915591519182527f17307eab39ab6107e8899845ad3d59bd9653f200f220920489ca2b5937696c31910160405180910390a3505050565b6001600160a01b0383163b156110e357604051630a85bd0160e11b81526001600160a01b0384169063150b7a0290611001908890889087908790600401611b7d565b6020604051808303816000875af192505050801561103c575060408051601f3d908101601f1916820190925261103991810190611bba565b60015b6110a5573d80801561106a576040519150601f19603f3d011682016040523d82523d6000602084013e61106f565b606091505b50805160000361109d57604051633250574960e11b81526001600160a01b038516600482015260240161048e565b805160208201fd5b6001600160e01b03198116630a85bd0160e11b146110e157604051633250574960e11b81526001600160a01b038516600482015260240161048e565b505b5050505050565b6060600880546103ad90611996565b606060006111068361135b565b600101905060008167ffffffffffffffff811115611126576111266115cb565b6040519080825280601f01601f191660200182016040528015611150576020820181803683370190505b5090508181016020015b600019016f181899199a1a9b1b9c1cb0b131b232b360811b600a86061a8153600a850494508461115a57509392505050565b6001600160a01b0382166111b657604051633250574960e11b81526000600482015260240161048e565b60006111c483836000610da8565b90506001600160a01b03811615610513576040516339e3563760e11b81526000600482015260240161048e565b808061120557506001600160a01b03821615155b156112c757600061121584610d62565b90506001600160a01b038316158015906112415750826001600160a01b0316816001600160a01b031614155b801561125457506112528184610b06565b155b1561127d5760405163a9fbf51f60e01b81526001600160a01b038416600482015260240161048e565b81156112c55783856001600160a01b0316826001600160a01b03167f8c5be1e5ebec7d5bd14f71427d1e84f3dd0314c0f7b2291e5b200ac8c7c3b92560405160405180910390a45b505b5050600090815260046020526040902080546001600160a01b0319166001600160a01b0392909216919091179055565b611302838383611433565b610513576001600160a01b03831661133057604051637e27328960e01b81526004810182905260240161048e565b60405163177e802f60e01b81526001600160a01b03831660048201526024810182905260440161048e565b60008072184f03e93ff9f4daa797ed6e38ed64bf6a1f0160401b831061139a5772184f03e93ff9f4daa797ed6e38ed64bf6a1f0160401b830492506040015b6d04ee2d6d415b85acef810000000083106113c6576d04ee2d6d415b85acef8100000000830492506020015b662386f26fc1000083106113e457662386f26fc10000830492506010015b6305f5e10083106113fc576305f5e100830492506008015b612710831061141057612710830492506004015b60648310611422576064830492506002015b600a83106103985760010192915050565b60006001600160a01b038316158015906114915750826001600160a01b0316846001600160a01b0316148061146d575061146d8484610b06565b8061149157506000828152600460205260409020546001600160a01b038481169116145b949350505050565b6001600160e01b031981168114610d5f57600080fd5b6000602082840312156114c157600080fd5b8135610aff81611499565b60005b838110156114e75781810151838201526020016114cf565b50506000910152565b600081518084526115088160208601602086016114cc565b601f01601f19169290920160200192915050565b602081526000610aff60208301846114f0565b60006020828403121561154157600080fd5b5035919050565b80356001600160a01b038116811461155f57600080fd5b919050565b6000806040838503121561157757600080fd5b61158083611548565b946020939093013593505050565b6000806000606084860312156115a357600080fd5b6115ac84611548565b92506115ba60208501611548565b929592945050506040919091013590565b634e487b7160e01b600052604160045260246000fd5b60008067ffffffffffffffff8411156115fc576115fc6115cb565b50604051601f19601f85018116603f0116810181811067ffffffffffffffff8211171561162b5761162b6115cb565b60405283815290508082840185101561164357600080fd5b83836020830137600060208583010152509392505050565b600082601f83011261166c57600080fd5b610aff838335602085016115e1565b60006020828403121561168d57600080fd5b813567ffffffffffffffff8111156116a457600080fd5b6114918482850161165b565b6000602082840312156116c257600080fd5b610aff82611548565b602081526000825161010060208401526116e96101208401826114f0565b90506020840151604084015260408401516060840152606084015160808401526080840151601f198483030160a085015261172482826114f0565b91505060a084015160c084015260c0840151601f198483030160e085015261174c82826114f0565b91505060e08401516101008401528091505092915050565b6000806000806080858703121561177a57600080fd5b8435935060208501359250604085013567ffffffffffffffff81111561179f57600080fd5b6117ab8782880161165b565b949793965093946060013593505050565b610100815260006117d161010083018b6114f0565b89602084015288604084015287606084015282810360808401526117f581886114f0565b90508560a084015282810360c084015261180f81866114f0565b9150508260e08301529998505050505050505050565b6000806040838503121561183857600080fd5b61184183611548565b91506020830135801515811461185657600080fd5b809150509250929050565b6000806000806080858703121561187757600080fd5b61188085611548565b935061188e60208601611548565b925060408501359150606085013567ffffffffffffffff8111156118b157600080fd5b8501601f810187136118c257600080fd5b6118d1878235602084016115e1565b91505092959194509250565b600080604083850312156118f057600080fd5b6118f983611548565b915061190760208401611548565b90509250929050565b600080600080600060a0868803121561192857600080fd5b853567ffffffffffffffff81111561193f57600080fd5b61194b8882890161165b565b955050602086013593506040860135925060608601359150608086013567ffffffffffffffff81111561197d57600080fd5b6119898882890161165b565b9150509295509295909350565b600181811c908216806119aa57607f821691505b6020821081036119ca57634e487b7160e01b600052602260045260246000fd5b50919050565b601f82111561051357806000526020600020601f840160051c810160208510156119f75750805b601f840160051c820191505b818110156110e35760008155600101611a03565b815167ffffffffffffffff811115611a3157611a316115cb565b611a4581611a3f8454611996565b846119d0565b6020601f821160018114611a795760008315611a615750848201515b600019600385901b1c1916600184901b1784556110e3565b600084815260208120601f198516915b82811015611aa95787850151825560209485019460019092019101611a89565b5084821015611ac75786840151600019600387901b60f8161c191681555b50505050600190811b01905550565b838152606060208201526000611aef60608301856114f0565b9050826040830152949350505050565b60008351611b118184602088016114cc565b835190830190611b258183602088016114cc565b01949350505050565b600060018201611b4e57634e487b7160e01b600052601160045260246000fd5b5060010190565b838152826020820152606060408201526000611b7460608301846114f0565b95945050505050565b6001600160a01b0385811682528416602082015260408101839052608060608201819052600090611bb0908301846114f0565b9695505050505050565b600060208284031215611bcc57600080fd5b8151610aff8161149956fea26469706673582212203245b2664607138724cf6415717e62c409d6529617b7502da5b2a7903b30145e64736f6c634300081c0033",
  "linkReferences": {},
  "deployedLinkReferences": {}
}